:020000040800F2
:1000000030090020C1650008991300089B130008FF
:100010009F130008A3130008A713000800000000A6
:10002000000000000000000000000000AB1300080A
:10003000AD13000800000000AF130008B113000862
:10004000DB650008DB650008DB650008DB65000890
:10005000DB650008DB650008F1510008095600085F
:100060007B580008215900084F5B0008DB65000839
:10007000DB650008DB650008DB650008DB65000860
:10008000DB650008DB650008DB650008DB65000850
:10009000DB650008DB650008DB650008DB65000840
:1000A000DB650008475F0008DB650008B75F0008F4
:1000B000DB650008DB650008535C0008DB650008B1
:1000C000DB650008DB650008DB650008DB65000810
:1000D000DB65000831640008DB650008DB650008AB
:1000E000DB650008DB650008DB650008DB650008F0
:1000F000DB650008DB650008DB650008DB650008E0
:10010000DB650008DB650008895C0008DB6500082A
:10011000DB650008DB650008DB650008DB650008BF
:10012000DB650008DB650008DB650008DB650008AF
:10013000DB650008DB650008DB650008DB6500089F
:10014000DB650008DB650008DB650008DB6500088F
:10015000DB650008DB650008DB650008DB6500087F
:10016000DB650008DB650008DB650008DB6500086F
:10017000DB650008DB650008DB650008DB6500085F
:10018000DB650008DB65000800F002F800F072F89B
:100190000AA090E8000C82448344AAF10107DA45E2
:1001A00001D100F067F8AFF2090EBAE80F0013F0C2
:1001B000010F18BFFB1A43F00103184758CD000088
:1001C00078CD00000A444FF0000C10F8013B13F00A
:1001D000070408BF10F8014B1D1108BF10F8015BA0
:1001E000641E05D010F8016B641E01F8016BF9D193
:1001F00013F0080F1EBF10F8014BAD1C0C1B09D1EA
:100200006D1E58BF01F801CBFAD505E014F8016B5B
:1002100001F8016B6D1EF9D59142D6D370470000ED
:100220000023002400250026103A28BF78C1FBD8FF
:10023000520728BF30C148BF0B607047642908F0DF
:100240006F80782908F0A880002070471FB50BF058
:100250001CFE08F05BFE0400002000210AF074FF81
:10026000401C6060002000210AF058FFE0601FBDC4
:1002700010B510BD08F084FB1146FFF7E7FF00F052
:1002800062F808F0FDFD03B4FFF7F2FF03BC06F0CF
:100290006BF800001CB54FF4A06006F0B1F9A8207F
:1002A00006F00CF905F0B4FD04F03DFA00BF03F0D0
:1002B0008CF90128FBD005F0D9FD002141F28830EE
:1002C00004F0B8FC04F014FF0322FAA1922005F018
:1002D000B0FD012005F074FD9FEDF80BF94880EDAD
:1002E0000C0B9FEDF90B80ED0E0B9FEDF70B80EDE6
:1002F000100B002104F0CAFD05F07DFC642006F01F
:100300003FF90121084606F00FFD4FF440400090F0
:1003100001208DF8040003208DF8050000208DF8E1
:10032000060001208DF807006946E94806F05EFAEC
:100330004FF48041E64806F0D7FA4FF40041E44814
:1003400006F0D2FA1CBD2DED0A8BFFF7A3FFFBE3ED
:1003500005F0EEFEDF480078312872D10020DE493A
:1003600008600422DDA1802005F063FDD94800214A
:100370000160416001819FEDDC0ADC4880ED000AEC
:1003800005F046FD15E205F0D3FE4FF4FA7006F0D5
:10039000F7F8D64890ED000AB5EEC00AF1EE10FA73
:1003A000F0D004F0C0F900BF03F00FF90128FBD032
:1003B000CE4890ED000ABDEEC00ACD4880ED000A9F
:1003C000292142F20F7005F0E7FBC94800680BF0E5
:1003D0008EF941EC1C0B9FEDC70B53EC102B0AF070
:1003E000C3FF41EC1B0BB0EE4B0AF0EE6B0A09F0B9
:1003F000ABFDB0EE40AAF0EE60AA9FEDC00B53EC4F
:10040000102B51EC1A0B0BF0D9F941EC190B9FEDA5
:10041000BD0B53EC102B0BF0D1F941EC180B0AF08B
:10042000B5FEBA4908609FEDBA0BA64880ED0C0BEB
:100430009FEDB90B80ED0E0B9FEDB90B80ED100B0E
:10044000B6E1B7E1B84800680BF0AEFC41EC180B20
:10045000B64800680BF0A8FC41EC1A0BB0EE4A0A53
:10046000F0EE6A0A0AF054F8B0EE409AF0EE609AA4
:1004700053EC182B51EC190B0BF09EFA12D2AB492E
:1004800091ED000ABDEEC00A10EE100A002801DB53
:10049000014600E0414200EE101AB8EEC00AA2493F
:1004A00081ED000A4FF48041894806F01BFA9E480E
:1004B00090ED000A9548D0ED000AB4EEE00AF1EEA6
:1004C00010FA36D29A4890ED000AB5EEC00AF1EE65
:1004D00010FA09DD4FF4FA61964807F08EFA002110
:1004E000944807F088FA08E04FF4FA61914807F061
:1004F00082FA00218F4807F080FA8F4890ED000AB9
:10050000B5EEC00AF1EE10FA09DD4FF4FA61894840
:1005100007F06FFA0021874807F069FA48E14FF4C5
:10052000FA61844807F063FA0021824807F061FA13
:100530003EE14FF40041664806F0D4F937E17E48C9
:1005400000680BF031FC41EC190BB0EE490AF0EEFB
:10055000690A09F0DDFFB0EE408AF0EE608A9FED97
:10056000770B53EC102B51EC180B0BF0EBF84FD230
:100570006E4800680BF018FC41EC190BB0EE490A0C
:10058000F0EE690A09F0C4FFB0EE408AF0EE608A2E
:1005900051EC180B0AF0FAFD6349086063480068E3
:1005A0000BF002FC41EC1B0BB0EE4B0AF0EE6B0AB9
:1005B00009F0AEFFB0EE409AF0EE609A5348006842
:1005C0000BF0F2FB41EC1A0B53EC192B0BF002FB76
:1005D00041EC180B0AF0DAFD5A4908600846006839
:1005E0000BF0E2FB41EC190BB0EE490AF0EE690AA0
:1005F000344804F09FFCB0EE408AF0EE608A51EC83
:10060000180B0AF0C3FD50490860322005F0B8FF0E
:10061000474890ED000AB5EEC00AF1EE10FA09DD88
:100620004FF4FA61434807F0E8F90021414807F028
:10063000E2F908E04FF4FA613E4807F0DCF90021E6
:100640003C4807F0DAF93C4890ED000AB5EEC00AE4
:10065000F1EE10FA7DDD3C4890ED000AB5EEC00ADF
:10066000F1EE10FA12DD90ED000ADFED380A30EEFF
:10067000200ABCEEC00A10EE101A2E4807F0B9F995
:100680004FF47A712B4807F0B2F990E02E4890EDC4
:10069000000ADFED2E0A30EEC00ABCEEC00A10EEF2
:1006A000101A244807F0A3F94FF47A71214807F093
:1006B000A0F97CE0535953204F4B0000000000008C
:1006C00000407F408001002000000000000000008A
:1006D00000000240F80100204C010020BFD8B7F90B
:1006E000B0DAA3BA000000000000000054010020AE
:1006F0007800002033333333331356406666666622
:1007000066A64C407B14AE47E17AF03FCC00002057
:1007100000000000000079400000000000003E40A2
:100720000000000000000040C8000020B8000020C9
:100730005C00002000040040600000209A99999914
:100740009999E93F68000020A800002000007A4441
:10075000FFE7FE4890ED000AB5EEC00AF1EE10FA90
:1007600012DD90ED000A5FED070A30EE200ABCEEC4
:10077000C00A10EE101AF64807F039F94FF47A71F2
:10078000F34807F036F912E0F04890ED000A5FED0B
:10079000110A30EEC00ABCEEC00A10EE101AEC4886
:1007A00007F027F94FF47A71E94807F020F9C6E617
:1007B00048E6E8E5E748007832287CD10020E649A1
:1007C00008600422E5A1802005F033FBE148002108
:1007D0000160416001811FED3C0AE34880ED000AA1
:1007E00005F016FBD8E205F0A3FC4FF4FA7005F013
:1007F000C7FEDD4890ED000AB5EEC00AF1EE10FA32
:10080000F0D090ED000ADFEDD90AB4EEE00AF1EE87
:1008100010FA7AD800680BF0C7FAD54A03C203F081
:1008200082FF00BF02F0D1FE0128FBD0292142F255
:100830000F7005F0B1F94FF48041CE4806F052F840
:1008400025E10020CC49086022E0CC49CA4A126860
:1008500051F822000AF04BFF41EC180BC44890ED10
:10086000000B53EC102B51EC180B0AF0D5FE0AD1FB
:10087000C2492831C04A126851F822000AF037FFF5
:10088000BB4A03C208E0BC480068401CBA49086083
:10089000B94800680928D8DD00BF1FED680B53EC8C
:1008A000102BB34890ED000B51EC100B0AF05CFDDF
:1008B00041EC1C0B00E070E2B0EE4C0AF0EE6C0A6A
:1008C00009F0C2FDB0EE40BAF0EE60BA9FEDAC0B9D
:1008D00053EC102B51EC1B0B0AF070FF41EC1A0B80
:1008E0009FEDA90B53EC102B0AF082FC41EC190B85
:1008F0009FEDA70B53EC102B0AF036FD41EC180BC3
:100900000AF044FCA449086000E0C1E01FED850B3B
:1009100053EC102B964890ED000B51EC100B0AF0A5
:1009200023FD41EC1C0BB0EE4C0AF0EE6C0A09F012
:1009300063FEB0EE40BAF0EE60BA9FED910B53EC5F
:10094000102B51EC1B0B0AF039FF41EC1A0B9FEDF9
:100950008E0B53EC102B0AF04BFC41EC190B9FED66
:100960008C0B53EC102B0AF0FFFC41EC180B0AF037
:100970000DFC8A49086048E0894890ED000AB5EE10
:10098000C00AF1EE10FA07DC864890ED000AB5EED9
:10099000C00AF1EE10FA1CD27F4890ED000ABCEEBE
:1009A000C00A10EE101A6A4807F023F800216848C0
:1009B00007F01DF8794890ED000ABCEEC00A10EE71
:1009C000101A634807F019F80021614807F013F87E
:1009D0001BE0714890ED000ABCEEC00A10EE101A40
:1009E0005B4807F004F80021594807F002F86B480B
:1009F00090ED000ABCEEC00A10EE101A544806F042
:100A0000FAFF0021524806F0F8FF674800680BF033
:100A1000CBF941EC190BB0EE490AF0EE690A09F086
:100A200077FDB0EE408AF0EE608A9FED600B53ECEC
:100A3000102B51EC180B0AF085FE18D25D480068A7
:100A40000BF0B2F941EC190BB0EE490AF0EE690A6D
:100A500009F05EFDB0EE408AF0EE608A9FED530B28
:100A600053EC102B51EC180B0AF06CFE84D30021D0
:100A7000374806F0BCFF0021354806F0BAFF0021D8
:100A8000334806F0B8FF0021314806F0B6FFD8E63B
:100A9000354890ED000ADFED350AB4EEE00AF1EEDC
:100AA00010FA52DD90ED000ADFED430AB4EEE00AE1
:100AB000F1EE10FA49D86EE12B4890ED000ADFED17
:100AC0003E0A30EEC00A10EE101A08460BF06CF920
:100AD000274A03C200202849086022E02749264A05
:100AE000126851F822000AF002FE41EC180B20486F
:100AF00090ED000B53EC102B51EC180B0AF08CFD11
:100B00000AD11E4928311C4A126851F822000AF005
:100B1000EEFD174A03C208E017480068401C16495A
:100B20000860154800680928D8DD00BF9FED230B39
:100B300053EC102B0E4890ED000B51EC100B0AF00B
:100B400013FC41EC1C0B3DE0EFE325E1A800002085
:100B500000040040F80100204C010020BFD8BDC7B0
:100B6000B0DAA3BA00000000540100200000B44233
:100B7000A0000020000002407C000020280000208F
:100B80000000000000AAE4400000000000D079400E
:100B9000000000E0A3702C408000002084000020B2
:100BA000600000205C000020B80000200000000071
:100BB00000002E40B40000200000344366666666E4
:100BC00066A64C40B0EE4C0AF0EE6C0A09F03CFC14
:100BD000B0EE40BAF0EE60BA1FED170B53EC102BDD
:100BE00051EC1B0B0AF0EAFD41EC1A0B1FED1A0B3E
:100BF00053EC102B0AF0FCFA41EC190B1FED1C0B07
:100C000053EC102B0AF0B0FB41EC180B0AF0BEFAC3
:100C1000FE4908601FED170B53EC102BFC4890EDBC
:100C2000000B51EC100B0AF09FFB41EC1C0BB0EEDB
:100C30004C0AF0EE6C0A09F0DFFCB0EE40BAF0EEC0
:100C400060BA1FED310B53EC102B51EC1B0B0AF06B
:100C5000B5FD41EC1A0B1FED340B53EC102B0AF0D1
:100C6000C7FA41EC190B1FED360B53EC102B0AF0B1
:100C70007BFB41EC180B0AF089FAE649086048E072
:100C8000E54890ED000AB5EEC00AF1EE10FA07DC77
:100C9000E24890ED000AB5EEC00AF1EE10FA1CDD54
:100CA000DA4890ED000ABCEEC00A10EE101ADC48DB
:100CB00006F09FFE0021DA4806F099FED54890ED37
:100CC000000ABCEEC00A10EE101AD54806F093FEDA
:100CD0000021D34806F091FE1BE0CC4890ED000ABD
:100CE000BCEEC00A10EE101ACD4806F080FE0021BE
:100CF000CB4806F07EFEC74890ED000ABCEEC00A65
:100D000010EE101AC64806F078FE0021C44806F01E
:100D100072FEC44800680BF047F841EC190BB0EEC6
:100D2000490AF0EE690A09F0F3FBB0EE408AF0EEF2
:100D3000608A1FED620B53EC102B51EC180B0AF07C
:100D400001FD18D2B84800680BF02EF841EC190BE1
:100D5000B0EE490AF0EE690A09F0DAFBB0EE408A1B
:100D6000F0EE608A1FED6F0B53EC102B51EC180B5B
:100D70000AF0E8FC84D30021A94806F038FE0021DF
:100D8000A74806F036FE0021A54806F034FE0021F3
:100D9000A34806F032FE8FE625E5A4480078332804
:100DA00010D10020A24908600422A2A1802005F0F1
:100DB00040F89E480021016041600181042007F055
:100DC0002AFAC8E29948007834287BD10020984953
:100DD000086004229AA1802005F02BF89348002196
:100DE0000160416001819FED990A994880ED000AF8
:100DF00005F00EF89AE205F09BF94FF4FA7005F051
:100E0000BFFB934890ED000AB5EEC00AF1EE10FA70
:100E1000F0D090ED000ABDEEC00A8E4880ED000AC9
:100E200003F081FC00BF02F0D0FB0128FBD04FF49F
:100E30008041894805F056FD864800680AF057FC55
:100E400041EC1C0B9FED850B53EC102B0AF08CFA38
:100E500041EC1B0BB0EE4B0AF0EE6B0A09F074F894
:100E6000B0EE40AAF0EE60AA1FEDAC0B53EC102BD5
:100E700051EC1A0B0AF0A2FC41EC190B9FED790B17
:100E800053EC102B0AF09AFC41EC180B0AF07EF997
:100E900076490860292142F20F7004F07DFE6D480A
:100EA00000680AF024FC41EC180B9FED710B53EC29
:100EB000102B0AF081FD0CD29FED6F0A6F4880ED78
:100EC000000A00E033E29FED6E0A6E4880ED000AF2
:100ED00046E0604800680AF00AFC41EC180B9FED00
:100EE0006A0B53EC102B0AF067FD0AD29FED680ADB
:100EF000624880ED000A9FED660A624880ED000AB4
:100F00002EE0544800680AF0F2FB41EC180B9FED0C
:100F1000610B53EC102B0AF04FFD0AD29FED5F0AD4
:100F2000564880ED000A9FED5D0A564880ED000AA4
:100F300016E0484800680AF0DAFB41EC180B9FED18
:100F4000580B53EC102B0AF037FD09D29FED560ACF
:100F50004A4880ED000A9FED550A4A4880ED000A94
:100F6000E2E1534890ED000AB8EEC00A514880ED26
:100F7000000A00680AF018FF41EC1B0B9FED4E0BB6
:100F800053EC102B0AF01AFC41EC1A0BB0EE4A0A93
:100F9000F0EE6A0A09F030FBB0EE409AF0EE609A8B
:100FA0009FED470B53EC102B51EC190B0AF006FC8C
:100FB00041EC180B0AF0EAF8434908603D48006824
:100FC0000AF0F2FE41EC1B0B9FED3B0B53EC102B98
:100FD0000AF0F4FB41EC1A0BB0EE4A0AF0EE6A0A92
:100FE00009F032FAB0EE409AF0EE609A9FED340BC1
:100FF00053EC102B51EC190B0AF0E0FB41EC180BF1
:101000000AF0C4F8314908602F4861E080000020F0
:10101000A000002084000020600000205C00002070
:1010200000040040B8000020B4000020F8010020B7
:101030004C010020D6C6B6AFCDA3A3BA0000000075
:10104000BBADD4B2B0DAA3BA0000000000000000CB
:101050005401002078000020000002403333333375
:10106000331356407B14AE47E17AF03FCC000020AA
:1010700000000000004040400080BB44C000002051
:101080000040BF44C40000200000000000803B403E
:1010900000009644000000000080364000006644D6
:1010A000000000000080314000404E4400004844F1
:1010B0004401002090000020CBA145B6F3FDA43FE1
:1010C0000000000000ECA340880000208C000020FD
:1010D00090ED000AB5EEC00AF1EE10FA0DDB90EDCE
:1010E000000ABDEEC00A10EE101A9C4806F07FFC04
:1010F00000219A4806F07DFC0FE0994890ED000A27
:10110000B1EE400ABDEEC00A10EE101A934806F088
:1011100070FC0021914806F06AFC924890ED000AAC
:10112000B5EEC00AF1EE10FA0DDB90ED000ABDEE4F
:10113000C00A10EE101A894806F05FFC00218748AB
:1011400006F059FC0FE0874890ED000AB1EE400A26
:10115000BDEEC00A10EE101A804806F04CFC0021CB
:101160007E4806F04AFC804800680AF01DFE41EC0B
:10117000180B7E4800680AF017FE41EC1A0BB0EE1F
:101180004A0AF0EE6A0A09F0C3F9B0EE409AF0EEAE
:10119000609A53EC182B51EC190B0AF00DFC1CD380
:1011A000714800680AF000FE41EC180B70480068B6
:1011B0000AF0FAFD41EC1A0BB0EE4A0AF0EE6A0AA8
:1011C00009F0A6F9B0EE409AF0EE609A53EC182BB5
:1011D00051EC190B0AF0F0FB7ED2A4E0654890EDCB
:1011E000000AB8EEC00A644880ED000A00680AF000
:1011F000DBFD41EC1C0B1FED500B53EC102B0AF0E8
:10120000DDFA41EC1B0BB0EE4B0AF0EE6B0A09F075
:10121000F3F9B0EE409AF0EE609A584800680AF090
:10122000C3FD41EC1A0B53EC192B0AF0C7FA41EC41
:10123000180B09F0ABFF4A4908604F4800680AF0F4
:10124000B3FD41EC1C0B1FED640B53EC102B0AF0AB
:10125000B5FA41EC1B0BB0EE4B0AF0EE6B0A09F04D
:10126000F3F8B0EE409AF0EE609A454800680AF054
:101270009BFD41EC1A0B53EC192B0AF09FFA41EC41
:10128000180B09F083FF37490860354890ED000AD4
:10129000B5EEC00AF1EE10FA0DDB90ED000ABDEEDE
:1012A000C00A10EE101A2D4806F0A1FB00212B48B1
:1012B00006F09FFB0FE02A4890ED000AB1EE400ACD
:1012C000BDEEC00A10EE101A244806F092FB002171
:1012D000224806F08CFB00E026E0224890ED000A50
:1012E000B5EEC00AF1EE10FA0DDB90ED000ABDEE8E
:1012F000C00A10EE101A194806F07FFB00211748AB
:1013000006F079FB0FE0174890ED000AB1EE400AB5
:10131000BDEEC00A10EE101A104806F06CFB00215A
:101320000E4806F06AFB59E71BE614E063E5154832
:10133000007835280FD1002013490860042213A13A
:10134000802004F076FD0F4800210160416001819A
:10135000102006F060FFFEF7FBBF00000004004015
:10136000880000208C000020CC000020B400002069
:10137000B80000204401002090000020C0000020A0
:10138000C4000020F80100204C010020BFB9C8C5EE
:10139000B0DAA3BA00000000704700BFFEE700BF4C
:1013A000FEE700BFFEE700BFFEE7704770477047EB
:1013B000704700000CB5002001900090764800684E
:1013C00040F480307449086000BF7348006800F43E
:1013D000003000900198401C0190009818B90198C5
:1013E000B0F5A04FF1D16C48006800F4003010B1A6
:1013F0000120009001E0002000900098012846D1D3
:1014000065484030006840F08050634940310860D2
:101410006248006840F44040604908605E48083017
:1014200000685D49083108600846006840F40040E3
:1014300008600846006840F4A05008605848091F3A
:101440000860081F006840F08070091F086000BF36
:101450005148006800F000700028F9D040F2057093
:10146000504908604C480830006820F003004A49A1
:10147000083108600846006840F00200086000BFBC
:1014800045480830006800F00C000828F8D10CBD71
:1014900010B54548006840F47000434908603E4874
:1014A000006840F001003C49086000203A490831DA
:1014B0000860394800683D490840374908603C48A1
:1014C000091D0860081F006820F48020091F0860BB
:1014D000002031490C310860FFF76CFF4FF00060CD
:1014E00031498039086010BD70B500200022022308
:1014F00000240221284D08352D6805F00C0020B18C
:10150000042806D0082834D107E02A4D2A4E356039
:1015100033E02A4D284E35602FE01F4D2D1D2D68DC
:10152000C5F380541C4D2D1D2D6805F03F0154B1AD
:10153000224DB5FBF1F5184E361D3668C6F38816F8
:1015400005FB06F209E01B4DB5FBF1F5124E361D09
:101550003668C6F3881605FB06F20F4D2D1D2D6863
:10156000C5F301456D1C6B00B2FBF3F5124E3560FF
:1015700003E0104D104E356000BF00BF064D08352A
:101580002D68C5F303150E4E705D0B4D2D68C540DB
:10159000094E356070BD0000003802400070004008
:1015A00008544007003C024088ED00E0FFFFF6FED3
:1015B000103000240024F400E000002000127A0023
:1015C000E400002038B50446F74890F82400C0B184
:1015D00014B10220009001E000200090F24A12684D
:1015E000D17BF14A526810786B46012203F091F9E1
:1015F00010B14FF0FF3038BD9DF80010EA4841743B
:1016000023E0E948807A10B94FF0FF30F3E724B1C6
:10161000E548407C08B10020EDE714B101200090BE
:1016200001E000200090E04A1268D17BDE4A526857
:1016300010786B46012203F06CF910B14FF0FF30C7
:10164000D9E79DF80010D84841740020D3E738B599
:1016500000241FE0D4480068C07AA04204D0D248D9
:101660000068407DA04200D112E0CF494968087867
:101670006B460122214603F093F810B14FF0FF3082
:1016800038BD9DF800202146C8A006F015FE00BF19
:10169000601CC4B2C44840680079A042DADC002073
:1016A000EEE770B504460D46BF480068C07AA04218
:1016B00004D0BD480068407DA04202D14FF0FF3009
:1016C00070BDB94840680079A04202DC4FF0FF309D
:1016D000F6E7B549496808782B460122214603F010
:1016E0005FF8EDE738B50446AF4890F82300A04214
:1016F00001D1002038BD14B13020009001E000205D
:101700000090A948807C20B19DF8000040F00200C4
:101710000090A54890F8220020B19DF8000040F00C
:1017200080000090A04A1268117D9F4A526810788C
:101730006B46012203F0EDF810B14FF0FF30D9E70E
:10174000994880F823400020D4E738B5044604F0D7
:10175000700010B10120009005E014B1002000904D
:1017600001E040200090904A1268917C8E4A5268B5
:1017700010786B46012203F0CCF820B100218A4892
:101780008172481E38BD9DF8000020F04001864857
:1017900001730020009004F0400020B99DF8000083
:1017A00040F00400009004F0200020B99DF80000F3
:1017B00040F00200009004F0100020B99DF80000F5
:1017C00040F00100009004F0080020B99DF80000EE
:1017D00040F038000090744A1268D17C724A526816
:1017E00010786B46012203F094F820B100216E4876
:1017F0008172481EC6E724B1082C02D00020FFF7F2
:1018000071FF6948847200210175322004F0B8FE2E
:101810000020B7E738B504466348807CA04201D178
:10182000002038BD002C46D05F4A126811795E4A0C
:10183000526810786B46012202F0B2FF10B14FF0EF
:10184000FF30EEE79DF8000020F020000090564A9F
:1018500012681179544A526810786B46012203F0DD
:1018600058F810B14FF0FF30DBE7032004F088FE9A
:10187000022000904C4890F8220020B19DF8000012
:1018800040F080000090484890F8230020B19DF877
:10189000000040F030000090434A1268117D424A37
:1018A000526810786B46012203F033F8002851D0BB
:1018B0004FF0FF30B5E73C4A126811793A4A526856
:1018C00010786B46012202F06BFF10B14FF0FF3031
:1018D000A7E73548807A00F0010028B19DF80000A4
:1018E00040F02000009004E09DF8000020F020006F
:1018F00000902D4A126811792B4A526810786B4675
:10190000012203F006F810B14FF0FF3089E7032001
:1019100004F036FE244890F8220010B18020009098
:1019200001E000200090204890F8230020B19DF8AD
:10193000000040F0300000901B4A1268117D1A4AE6
:10194000526810786B46012202F0E3FF10B14FF0AD
:10195000FF3066E714488474002062E708B5124837
:10196000807A10B94FF0FF3008BD002000900E4A79
:101970001268D17B0C4A526810786B46012202F043
:10198000C8FF10B14FF0FF30EEE7074A12685179F7
:10199000054A526810786B46012202F0BAFF68B11E
:1019A0004FF0FF30E0E70000F400002025233578F9
:1019B0003A20252335780D0A00000000F84A126805
:1019C0001179F74A526810786B46012202F0A1FFA4
:1019D00010B14FF0FF30C7E7F14890F8240000281D
:1019E00053D00C200090EE4A12681179EC4A5268EC
:1019F00010786B46012202F08CFF10B14FF0FF30DF
:101A0000B2E7322004F0BCFDC0200090E448807AA8
:101A100000F0010020B19DF8000040F0200000908F
:101A2000DF4A12681179DE4A526810786B4601224B
:101A300002F06FFF10B14FF0FF3095E7D848407CBF
:101A400010B10220009001E000200090D44A1268FA
:101A5000D17BD34A526810786B46012202F059FFBD
:101A600010B14FF0FF307FE700200090CC4A1268A1
:101A70005179CB4A526810786B46012202F049FF37
:101A8000002855D04FF0FF306EE704200090C44A84
:101A900012681179C24A526810786B46012202F02E
:101AA00038FF10B14FF0FF305EE7BD48807C20B9B1
:101AB000BB48807A00F0010010B94020009001E09E
:101AC00060200090B64A12681179B54A52681078C1
:101AD0006B46012202F01DFF10B14FF0FF3043E7CB
:101AE000322004F04DFDAE48407C10B10120009042
:101AF00001E000200090AA4A1268D17BA84A5268EF
:101B000010786B46012202F004FF10B14FF0FF3055
:101B10002AE7A34A12685179A14A52681078A04B6B
:101B20001033012202F0F5FE10B14FF0FF301BE739
:101B3000002019E770B50446002624F001049848F7
:101B400090F8240008B1002070BD9548807A10B943
:101B50004FF0FF30F8E79248057C807A20409049AA
:101B600008740846007CA04202D04FF0FF3600E027
:101B7000002614B98A48007D18B10120FFF722FD24
:101B800002E00020FFF71EFD3CB1FFF7E7FE20B1A9
:101B9000834805744FF0FF30D6E73046D4E738B5B8
:101BA00004467F48807A10B94FF0FF3038BDBC2C16
:101BB00002DB0120009015E0622C02DB0220009085
:101BC00010E02A2C02DB032000900BE0142C02DB37
:101BD0000420009006E00A2C02DB0520009001E0C2
:101BE000062000906E48C07A9DF80010884201D10E
:101BF0000020DBE76A4A12689178694A52681078D7
:101C00006B46012202F085FE10B14FF0FF30CDE7A8
:101C10009DF800106248C1720020C7E738B504463D
:101C2000282C02DD4FF0FF3038BDDCB90020FFF773
:101C300059FD00208DF8000007208DF80100584A5A
:101C40001268917C564A526810786B46022202F064
:101C500060FE10B14FF0FF30E6E7002150480175FB
:101C60000020E1E70120FFF73DFD20208DF8000076
:101C7000012C06D100208DF801000520FFF78FFF11
:101C800017E0052C06DC01208DF801000520FFF788
:101C900086FF0EE0142C06DC02208DF801000A20DD
:101CA000FFF77DFF05E003208DF801001420FFF70A
:101CB00076FF9DF80100072101EB8010C0B28DF87E
:101CC0000100374A1268917C354A526810786B4699
:101CD000022202F01EFE10B14FF0FF30A4E70821EF
:101CE0002F48817200210173012101750020FFF747
:101CF00021FF002098E738B504462948807A10B9BA
:101D00004FF0FF3038BD264890F8240010B14FF056
:101D1000FF30F7E72248007D50B134B1282C04DCB5
:101D2000E0B2FFF77BFF0020ECE70020FFF776FF33
:101D3000042C01DA042404E0B4F57A7F01DD4FF4C9
:101D40007A744FF47A7090FBF4F0401EC0B20090A9
:101D5000134A12685178124A526810786B46012271
:101D600002F0D7FD10B14FF0FF30CBE79DF8000037
:101D7000401C4FF47A7191FBF0F081B20848C181A8
:101D80000146C9894810FFF70AFF0020BAE738B5B5
:101D900004460348807A28B94FF0FF3038BD000070
:101DA000F4000020022C06D0042C07D0082C08D008
:101DB000102C0CD108E0002000900BE008200090CF
:101DC00008E01020009005E01820009002E04FF09D
:101DD000FF30E3E700BFF748407A9DF80010B0EB12
:101DE000E10F01D10020D9E7F24A1268D179F14A16
:101DF000526810786B46012202F08BFD10B14FF053
:101E0000FF30CBE79DF80000C110EA484172002086
:101E1000C4E738B50446E748807A10B94FF0FF3080
:101E200038BDFA2C09D0B4F5FA7F09D0B4F57A7F21
:101E300009D0B4F5FA6F0CD108E0002000900BE057
:101E40000820009008E01020009005E01820009085
:101E500002E04FF0FF30E3E700BFD648007A9DF87C
:101E60000010B0EBE10F01D10020D9E7D14A126890
:101E70009179D04A526810786B46012202F049FDF0
:101E800010B14FF0FF30CBE79DF80000C010C949FA
:101E900008720020C4E71CB580208DF80000C54AF8
:101EA0001268917CC34A526810786B46012202F096
:101EB00030FD10B14FF0FF301CBD642004F060FB1A
:101EC00000208DF80000BB4A1268917CB94A526824
:101ED00010786B46012202F01CFD10B14FF0FF306C
:101EE000EAE7B44A1268917DB24A526810786B46AC
:101EF000062202F055FC10B14FF0FF30DCE79DF8F0
:101F00000500C007400F9DF8031001F0010140EAF1
:101F100041009DF8011001F0010140EA010494B173
:101F2000012C03D10121A348C17431E0022C03D15B
:101F30000021A048C1742BE021469FA006F0BCF907
:101F40004FF0FF30B8E79B4A1268D178994A52683F
:101F500010786B46012202F023FC10B14FF0FF30E5
:101F6000AAE79DF8000000F00F042CB99C4806F089
:101F7000A3F94FF0FF309FE7042C06D199A006F09B
:101F80009BF901218B48C17402E000218948C1748A
:101F9000FF2188488172FF2086490872FF21854809
:101FA0004172C1724FF6FF71C181FF2101748174CA
:101FB0000121017380F82210002180F8231041755F
:101FC00001751630016041608160163880F8241078
:101FD00080F82510C1844FF4FA60FFF71AFF10B1A2
:101FE0004FF0FF3068E70220FFF7D1FE10B14FF04D
:101FF000FF3061E72A20FFF7D2FD10B14FF0FF302C
:102000005AE73220FFF777FE10B14FF0FF3053E769
:102010000020FFF78FFD10B14FF0FF304CE700209C
:10202000FFF7F8FB10B14FF0FF3045E70020FFF756
:102030008CFB002040E770477CB504460D465D48A8
:10204000807A00F0700010B94FF0FF307CBD594A23
:102050001268117B574A526810786B46062202F0CC
:102060009FFB10B14FF0FF30F0E79DF801009DF8A5
:10207000001040EA012000B220809DF803009DF886
:10208000021040EA012000B260809DF805009DF832
:10209000041040EA012000B2A08015B12846FFF7E5
:1020A000CAFF0020D2E77CB504460D464148807A3D
:1020B00000F0080010B94FF0FF307CBD3D4A1268B7
:1020C000517B3C4A526810786B46062202F068FB4E
:1020D00010B14FF0FF30F0E79DF801009DF80010BF
:1020E00040EA012000B220809DF803009DF8021014
:1020F00040EA012000B260809DF805009DF80410C0
:1021000040EA012000B2A08015B12846FFF793FFF6
:102110000020D2E7F8B506460C462648807A10B96A
:102120004FF0FF30F8BD234A1268917B214A526874
:1021300010786B46022202F033FB10B14FF0FF30F3
:10214000F0E79DF801009DF8001040EA012005B27B
:1021500014B12046FFF76FFF16484068B0F9080039
:1021600000EE100AF8EEC00A00EE105AB8EEC00AEF
:1021700070EE600A0F484068C08800EE100AB8EEA2
:10218000400A80EE801A9FED1F0A31EE000ADFED53
:102190001E0A20EE200ABDEEC00A86ED000A0020CD
:1021A000C0E710B588B004461CB94FF0FF3008B046
:1021B00010BD2BE0F4000020556E737570706F72C7
:1021C00074656420736F6674776172652070726FD6
:1021D00064756374207265762025642E0A00000001
:1021E000C4CE000848616C662073656E73697469BB
:1021F00076697479207061727420666F756E642ED2
:102200000A00000000000C4200008047206830B93E
:10221000606820B9A06810B9002008B010BDF94965
:102220004968087806AB0322114602F0B9FA10B1EA
:102230004FF0FF30F1E79DF81800082101EB201066
:1022400000F00F00ADF800009DF8190001EB201020
:1022500000F00F00ADF802009DF81A0001EB20100D
:1022600000F00F00ADF8040020684100BDF9000047
:10227000403091FBF0F000B2ADF810006068410012
:10228000BDF90200403091FBF0F000B2ADF8120051
:10229000A0684100BDF90400403091FBF0F000B2AD
:1022A000ADF81400D7494968087806AB06221146F4
:1022B00002F076FA10B14FF0FF30AEE79DF819004A
:1022C0009DF8181040EA012000B2ADF808009DF812
:1022D0001B009DF81A1040EA012000B2ADF80A0078
:1022E0009DF81D009DF81C1040EA012000B2ADF8D9
:1022F0000C00BDF81000BDF80810084400B2ADF89D
:102300001000BDF81200BDF80A10084400B2ADF884
:102310001200BDF81400BDF80C10084400B2ADF86E
:102320001400BDF81000000A8DF81800BDF8100068
:10233000C0B28DF81900BDF81200000A8DF81A001D
:10234000BDF81200C0B28DF81B00BDF81400000AE1
:102350008DF81C00BDF81400C0B28DF81D00A9490D
:102360004968087806AB0622114602F0D2FA10B18D
:102370004FF0FF3051E700204FE70146A148007AB7
:1023800030B1012807D0022809D003280FD10AE074
:10239000FA2008800EE04FF4FA7008800AE04FF44B
:1023A0007A70088006E04FF4FA60088002E00020AE
:1023B000088000BF00BF0020704701469148407A66
:1023C00030B1012807D0022808D003280CD108E03A
:1023D000022008700BE00420087008E00820087054
:1023E00005E01020087002E04FF0FF30704700BF9A
:1023F0008448C07C18B108784006000E08700020A0
:10240000F4E701467F48C07A082817D2DFE800F0D9
:102410001704070A0D101318BC20088013E062206F
:10242000088010E02A2008800DE0142008800AE0CF
:102430000A20088007E00520088004E000BF00BFF4
:102440000020088000BF00BF0020704701466D4893
:1024500090F8240010B14FF0FF3070476948C089F0
:1024600008800020F9E7014600200880401E7047E0
:1024700001464FF0FF30704701466248007A30B1A4
:10248000012809D002280CD0032814D10EE09FEDBA
:102490005E0A81ED000A11E09FED5C0A81ED000A01
:1024A0000CE09FED5B0A81ED000A07E09FED590A01
:1024B00081ED000A02E04FF0FF30704700BF0020BE
:1024C000FBE701464F48407A30B1012808D0022886
:1024D0000AD0032810D10BE04FF4804008800EE0B2
:1024E00041F69C7008800AE04FF48050088006E0B6
:1024F0004FF40060088002E04FF0FF30704700BFEB
:102500004048C07C10B10888401008800020F5E7E2
:1025100001463C48007C087000207047014639485D
:10252000807A10B10120087001E0002008700020BE
:10253000704738B504463348807A10B94FF0FF3001
:1025400038BD304A1268117C2E4A526810786B46AA
:10255000022202F025F910B14FF0FF30F0E79DF8AC
:1025600001009DF8001040EA012000B22080002008
:10257000E6E72DE9FE4F0746884692461D46DDF800
:1025800030B0002600241F4890F8240010B1601ECF
:10259000BDE8FE8F002028701A48807A10B94FF0ED
:1025A000FF30F5E71748007C10B94FF0FF30EFE738
:1025B0001448007C00F0400008B1B01CC6B21148BD
:1025C000007C00F0200008B1B01CC6B20D48007CB1
:1025D00000F0100008B1B01CC6B20A48007C00F040
:1025E000080008B1B01DC6B2064A1268917A054AC1
:1025F000526810786B46022202F0D2F860B14FF0B8
:10260000FF30C5E7F40000200000034300008342D0
:1026100033330342333383419DF801009DF80010AA
:1026200040EA0129B14501DA0020B1E7FA484068E3
:102630004088B9EB600F17DDF74A1268517CF64A03
:10264000526810786B46012202F0AAF810B14FF0E0
:10265000FF309DE79DF8000000F0100020B1FFF76B
:102660007DF96FF0010093E75046FFF7E4FCEA4A7A
:102670001268D17AE84A526810786B46324602F006
:102680008FF810B14FF0FF3082E799FBF6F0401E53
:102690008BF8000000202870B4422AD0DE48007C6D
:1026A00000F0080028B3601C1DF800001DF804109D
:1026B00040EA012000B2A8F80000E01C1DF800105C
:1026C000A01C1DF8000041EA002000B2A8F802009A
:1026D000601D1DF80010201D1DF8000041EA0020BB
:1026E00000B2A8F80400287840F008002870A01D67
:1026F00084B2B44213D0C848007C00F0400070B1EE
:10270000601C1DF800001DF8041040EA012000B212
:102710003880287840F040002870A01C84B2B44271
:1027200013D0BD48007C00F0200070B1601C1DF883
:1027300000001DF8041040EA012000B278802878DB
:1027400040F020002870A01C84B2B44213D0B248DC
:10275000007C00F0100070B1601C1DF800001DF836
:10276000041040EA012000B2B880287840F0100040
:102770002870A01C84B200200AE7F8B504460F4672
:102780001646A54890F8240010B94FF0FF30F8BD68
:10279000A148807A10B94FF0FF30F8E79E4A1268DE
:1027A000917A9D4A526810786B46022201F0F8FF38
:1027B00010B14FF0FF30EAE79DF801009DF80010DE
:1027C00040EA0125A54203DA00203070401EDEE712
:1027D000914840684088B5EB600F17DD8E4A12685B
:1027E000517C8D4A526810786B46012201F0D8FF67
:1027F00010B14FF0FF30CAE79DF8000000F0100064
:1028000020B1FFF7ABF86FF00100C0E7E2B2824BF6
:102810001B68D97A804B5B6818783B4601F0C0FF93
:1028200010B14FF0FF30B2E795FBF4F0401E30706E
:102830000020ACE70146784880F82210002070475D
:102840007CB5054674494968087801AB04220D211E
:1028500001F0A6FF08B107207CBD9DF80700C0F37A
:1028600001109DF8041001F0E00140EAE1008DF84C
:1028700000009DF80700C0F381009DF8051001F0ED
:10288000E00140EAE1008DF801009DF8070000F04A
:1028900003009DF8061001F0E00140EAE1008DF828
:1028A0000200002427E01DF8040030B99FED5B0A08
:1028B00005EB840080ED000A1BE09FED590A05EB53
:1028C000840080ED000A0BE005EB840090ED000A27
:1028D000DFED540A20EE200A05EB840080ED000AAB
:1028E0001DF80400401EC0B20DF804000028EBD112
:1028F00000BF601CC4B2032CD5DB0020ACE7F0B5F0
:102900002DED028B83B006460F4600256846FFF783
:1029100097FF002447E056F8241057F82420881A1F
:10292000002801DB014600E0414200EE101AB8EE3B
:10293000C00ADFED3D0A80EE208A684600EB840085
:1029400090ED000AB5EEC00AF1EE10FA18D0684614
:1029500000EB8400D0ED000A88EE200AF7EE000AB2
:1029600070EE608AB0EEE80A3048D0ED090AB4EEA5
:10297000E00AF1EE10FA15DD0120A040054311E058
:102980002A4890ED070AB4EEC80AF1EE10FA06DC08
:1029900090ED080AB4EEC80AF1EE10FA02D2012056
:1029A000A0400543641C032CB5DB284603B0BDECF6
:1029B000028BF0BDF0B52DED048B81B006460F46BD
:1029C00000251549496808786B4603220D2101F05E
:1029D000E7FE20B1072001B0BDEC048BF0BD9DF8EF
:1029E000000000F01F008DF800009DF8010000F0CD
:1029F0001F008DF801009DF8020000F01F008DF807
:102A00000200002461E056F8241057F82420881AA8
:102A100000280DDB01460CE0F4000020000000005F
:102A20007B14AE3E1D5A843F00008047C4BF00089F
:102A3000414200EE101AB8EEC00A5FED050A80EEC2
:102A4000208A1DF8040068B3FE4890ED000AB8EE35
:102A5000400ADFEDFD0A80EE801AF0EE418A05E0C3
:102A60009FEDFA0A28EE800AF0EE408A1DF8040075
:102A7000401EC0B20DF804000028F1D188EE280AEB
:102A8000F7EE000A30EE609AB0EEC90AED48D0EDDC
:102A9000060AB4EEE00AF1EE10FA15DD0120A040BE
:102AA000054311E0E74890ED040AB4EEC80AF1EEE0
:102AB00010FA06DC90ED050AB4EEC80AF1EE10FA41
:102AC00002D20120A0400543641C032C9BDB284656
:102AD00081E72DE9F04F87B005460C46914601206D
:102AE0008DF8100000208DF81100D94A1268917CF1
:102AF000D74A5268107804AB022201F00AFF20B1D5
:102B00004FF0FF3007B0BDE8F08FC82003F038FD6C
:102B100000208DF81000CE4A1268D17BCC4A526852
:102B2000107804AB012201F0F4FE10B14FF0FF3039
:102B3000E8E7C74A12685179C54A5268107804AB71
:102B4000012201F0E6FE10B14FF0FF30DAE7C04A93
:102B50001268917CBE4A5268107804AB012201F0E1
:102B6000D8FE10B14FF0FF30CCE7B94A1268D17DE2
:102B7000B74A5268107804AB012201F0CAFE10B1C6
:102B80004FF0FF30BEE7B24A12681179B04A52687E
:102B9000107804AB012201F0BCFE10B14FF0FF3001
:102BA000B0E70C208DF81000A94A12681179A84AE4
:102BB0005268107804AB012201F0ABFE10B14FF067
:102BC000FF309FE70F2003F0DBFCA148806A407ACA
:102BD0008DF810009E4A126891789D4A52681078CC
:102BE00004AB012201F095FE10B14FF0FF3089E7F0
:102BF0009748806A007A8DF81000954A12685178DB
:102C0000934A5268107804AB012201F082FE10B1A1
:102C10004FF0FF3076E7B9F1000F07D08C48806A9B
:102C2000807A40F0E0008DF8100004E08848806A67
:102C3000807A8DF81000864A12689179844A526829
:102C4000107804AB012201F064FE10B14FF0FF30A8
:102C500058E7B9F1000F07D07D48806AC07A40F08C
:102C6000E0008DF8100003E07648C07A8DF810007F
:102C7000774A1268D179764A5268107804AB0122FB
:102C800001F047FE10B14FF0FF303BE7B9F1000F04
:102C900002D0C82003F074FC40208DF810006C4A6C
:102CA000126811796A4A5268107804AB012201F067
:102CB00030FE10B14FF0FF3024E778208DF810007F
:102CC000634A12685179624A5268107804AB012253
:102CD00001F01FFE10B14FF0FF3013E7594988890A
:102CE00003F04EFC00208DF81000594A126851790B
:102CF000574A5268107804AB012201F00AFE10B165
:102D00004FF0FF30FEE6524A1268917A504A5268FC
:102D1000107804AB022201F043FD10B14FF0FF30F8
:102D2000F0E69DF811009DF8101040EA012B0C20F0
:102D30009BFBF0F0C6B20020A86068602860A0602D
:102D400060602060824665E0414A1268D17A404A5C
:102D50005268107804AB0C2201F022FD10B14FF044
:102D6000FF30CFE69DF811009DF8101040EA0120D9
:102D700000B2ADF808009DF813009DF8121040EA6B
:102D8000012000B2ADF80A009DF815009DF814105E
:102D900040EA012000B2ADF80C00BDF9081020682F
:102DA00008442060BDF90A10606808446060BDF9FD
:102DB0000C10A0680844A0609DF817009DF816103C
:102DC00040EA012000B2ADF800009DF819009DF81E
:102DD000181040EA012000B2ADF802009DF81B0077
:102DE0009DF81A1040EA012000B2ADF80400BDF9C8
:102DF0000010286808442860BDF90210686808447B
:102E00006860BDF90410A8680844A8600AF10100D0
:102E100000F0FF0AB24597DB0A48D0F800C02868E6
:102E2000C117090441EA10410704624600233846ED
:102E300005F01DFA32460023CDE9020105F017FA2C
:102E4000286007E0C4BF000800B04C4554E3853F4C
:102E5000F4000020F848D0F800C06868C1170904E1
:102E600041EA1041070462460023384605F0FFF9A5
:102E700032460023CDE9020105F0F9F96860EE4819
:102E8000D0F800C0A868C117090441EA104107043E
:102E900062460023384605F0EAF932460023CDE9C0
:102EA000020105F0E4F9A860E348D0F804C0216805
:102EB000C817000440EA11480F0462460023384650
:102EC000414605F0D4F932460023CDE9020105F070
:102ED000CEF92060D848D0F804C06068C117090452
:102EE00041EA1041070462460023384605F0BFF965
:102EF00032460023CDE9020105F0B9F96060CE4801
:102F0000D0F804C0A068C117090441EA10410704C1
:102F100062460023384605F0AAF932460023CDE97F
:102F2000020105F0A4F9A060A068002804DDA068F3
:102F3000A0F58030A06003E0A06800F58030A060BC
:102F40000020DFE538B50446BC4890F82400A042D4
:102F500001D1002038BD24B3B84890F8250010B93D
:102F60004FF0FF30F6E70020FEF72CFB0020FEF7C5
:102F700051FCB249C88CFEF7BEFE00200090AF495C
:102F8000496808786B460122232101F0C2FC012127
:102F9000AA4880F824100120FEF714FBFEF7DEFC9F
:102FA00013E00020FEF70EFBA448007C0090A3492C
:102FB000496808786B460122232101F0AAFC002110
:102FC0009E4880F82410FEF7C9FC0020C2E72DE9D6
:102FD000F04F8DB083460F4602200C90974890F832
:102FE000240020B10020FFF7ADFF012600E00026FD
:102FF00003A8FFF7C2F905A8FFF7DFF901A8FFF75B
:1030000000FA02A8FFF722FA8C4890F80AA004A858
:10301000FFF77EFA002407E0002239465846FFF702
:1030200058FD00B902E0641C022CF5DB00BF022C45
:1030300001D1002528E0002407E0012206A909A803
:10304000FFF747FD00B902E0641C022CF5DB00BF6E
:10305000022C01D1002517E006A93846FFF74FFCE6
:1030600000F0FF0809A95846FFF7A4FC00F0FF098B
:103070000025B9F1000F01D145F00105B8F1000FAD
:1030800001D145F0020500BFFF206C490872FF2105
:103090006A484172C1724FF6FF71C181FF2181728E
:1030A000017401210173BDF80C00FEF7B2FE9DF81A
:1030B0001400FEF76CFEBDF80400FEF770FDBDF8CD
:1030C0000800FEF718FE5046FEF73FFB9DF8100083
:1030D000FEF730FD16B10120FFF734FF28460DB092
:1030E000BDE8F08FF8B504460D46164616B94FF008
:1030F000FF30F8BD5148807A10B94FF0FF30F8E743
:1031000020128DF80000E0B28DF801009DF801005A
:1031100028444A4949684989884202DD4FF0FF3016
:10312000E7E7464A1268117E444A526810786B46B7
:10313000022201F0EEFB10B14FF0FF30D9E7EAB206
:103140003E4B1B68597D3D4B5B681878334601F058
:10315000E0FB10B14FF0FF30CBE70020C9E7F8B536
:1031600004460D46164616B94FF0FF30F8BD3348F9
:10317000807A10B94FF0FF30F8E720128DF8000088
:10318000E0B28DF801009DF8010028442B49496800
:103190004989884202DD4FF0FF30E7E7274A12688D
:1031A000117E264A526810786B46022201F0B1FB6C
:1031B00010B14FF0FF30D9E7EAB2204B1B68597DC0
:1031C0001E4B5B681878334601F0EAFA10B14FF0F5
:1031D000FF30CBE70020C9E72DE9F04385B0054675
:1031E0000E4690469946154890F8250020B14FF0BC
:1031F000FF3005B0BDE8F08316B94FF0FF30F8E7B7
:10320000002428E0281B102801DD102000E0281BE6
:1032100087B2321939462046FFF764FF10B14FF0EC
:10322000FF30E6E701AA39462046FFF798FF38B19C
:103230004FF0FF30DDE70000C4BF0008F4000020BD
:1032400030193A4601A905F06FF910B16FF001008D
:10325000CFE7E01984B2AC42D4DB4FEA28208DF8E6
:10326000000008F0FF008DF80100F94A1268917E15
:10327000F74A526810786B46022201F04AFB10B1FF
:103280004FF0FF30B5E70121F14880F82510A0F894
:1032900026900020ADE70146ED4890F82400087024
:1032A000002070474FF0FF30704702464FF0FF306C
:1032B000704701464FF0FF307047F8B505460F469E
:1032C0001446002C70D0B5F5FF5F01DDFF2605E048
:1032D000202D01DA012601E0C5F3471607B90127C1
:1032E000282C02DD4FF0FF30F8BDD948407D28BBC7
:1032F000D74890F8240038B10020FFF723FE0121C1
:10330000D34880F8201003E00021D14880F8201035
:10331000CF481630FFF731F8CD481830FFF74DF899
:10332000CB481A30FFF76DF8C9481C30FFF78EF80C
:10333000C748817A81771F30FFF7EAF80020FEF74F
:1033400041F90020FEF76AFC00208DF80000C04A19
:1033500012689178BE4A526810786B46012201F0DB
:10336000D8FA10B14FF0FF30BEE740208DF80000D2
:10337000B74A1268D17BB64A526810786B46012270
:1033800001F0C7FA00B165E08DF800608DF80170BA
:10339000AF4A1268117AAE4A526810786B46022220
:1033A00001F0B7FA08B155E047E0052003F0E8F86E
:1033B000A748407A072101EBC000C0B28DF8000099
:1033C000A34A1268D179A24A526810786B4601224A
:1033D00001F09FFA00B13DE020208DF80000012CA3
:1033E00003D100208DF801000EE0052C03DC012044
:1033F0008DF8010008E0142C03DC02208DF8010098
:1034000002E003208DF801009DF80100072101EB87
:103410008010C0B28DF801008D4A1268917C8C4AF0
:10342000526810786B46022201F073FA00B111E085
:10343000012187484175002056E7854A1632002150
:1034400003E0505C00B105E0491C0C29F9D34FF0B2
:10345000FF3049E7FF207E490872FF217C48417216
:10346000C1724FF6FF71C181FF2181720174012188
:1034700001730146887FFEF768F97549C88AFEF72F
:10348000C8FC7349087EFEF782FC7149488BFEF741
:1034900086FB6F49888BFEF72EFC6D49C87FFEF7CF
:1034A00049FB6B4890F8200010B10120FFF74AFD5E
:1034B000002167484175002016E710B588B002A9C1
:1034C00005A8FFF784FD0446032C41D101A8FEF7AF
:1034D000D3FF9DED050AB8EEC00ADDED010A20EE2E
:1034E000200ABDEEC00A8DED050A9DED060AB8EE74
:1034F000C00ADDED010A20EE200ABDEEC00A8DED06
:10350000060A9DED070AB8EEC00ADDED010A20EEBD
:10351000200ABDEEC00A8DED070A05A800F04DFA9D
:103520006846FEF7CEFFBDF80010029848430290AF
:10353000BDF80010039848430390BDF800100498AC
:103540004843049002A800F0CBFA002008B010BD58
:103550000120FBE7014691F90020002A01DD00204F
:103560001EE091F90020002A01DA042018E091F908
:103570000120002A01DD012012E091F90120002A3A
:1035800001DA05200CE091F90220002A01DD022079
:1035900006E091F90220002A01DA062000E0072067
:1035A000704710B504462046FFF7D4FF0346E01CE1
:1035B000FFF7D0FF43EAC00083B2A01DFFF7CAFFA8
:1035C00043EA801083B2184610BD70B5002401F0A4
:1035D00003FAFEF760FC002845D17820FEF7B5F825
:1035E000C4B20CB1012070BD7820FEF7A3FAC4B2BA
:1035F0000CB10220F7E76420FEF77DFBC4B20CB1EA
:103600000320F0E700F03EF9C4B20CB10420EAE771
:103610001048FFF7C6FF054600F03EF9C4B20CB1F2
:103620000520E0E740F2731000F087FDC4B20CB152
:103630000620D8E7642000F0E9FAC4B20CB10720F4
:10364000D1E7FFF73AFF044634B10820CBE700008A
:10365000F4000020200100200120FFF773FCC4B219
:103660000CB10920BFE70020BDE770B52DED0C8B34
:103670008EB004460D461646B7EE000AF0EE409AAC
:103680009FED7C0AB0EE408A9FED7A0AF0EE408A08
:103690009FED780AB0EE409A07A808A90DAB03AADF
:1036A000CDE9001009A90BA800F0A6FE20B1012069
:1036B0000EB0BDEC0C8B70BDBDF8200000F4807026
:1036C00000287CD09DED030AB8EEC00ADFED6A0A3F
:1036D00080EE201AF0EE419A9DED040AB8EEC00A81
:1036E000DFED650A80EE201AB0EE418A9DED050AF5
:1036F000B8EEC00ADFED600A80EE201AF0EE418AD3
:103700009DED060AB8EEC00ADFED5B0A80EE201AD6
:10371000B0EE419AB8EE000A28EE000A20EE090A3F
:10372000F0EE000A69EEA00A00EEA80A10EE101AE8
:10373000084608F039FB41EC1C0BB0EE4C0AF0EEE9
:103740006C0A06F051FAB0EE40BAF0EE60BA9FEDA6
:103750004B0B53EC102B51EC1B0B08F02FF841ECEA
:103760001A0B07F013FD2060B8EE000A28EE000ADD
:1037700020EE080AF0EE000A68EEA00A00EEE80A61
:10378000F7EE000A30EE200A10EE101A084608F094
:103790000BFB41EC1C0BB0EE000A28EE800A20EE79
:1037A000090AF0EE000A69EEA00A00EE880A10EE9F
:1037B000101A084608F0F8FA41EC1D0B00E054E03E
:1037C000B0EE4C1AF0EE6C1AB0EE4D0AF0EE6D0A47
:1037D00006F026FDB0EE40BAF0EE60BA9FED270B82
:1037E00053EC102B51EC1B0B07F0E8FF41EC1A0BCC
:1037F00007F0CCFC286029EEA90A08EE080A08EEBA
:10380000E80A09EE490A10EE101A084608F0CCFA48
:1038100041EC1C0B28EE280A09EE890AF0EE000A9A
:1038200020EE200A10EE101A084608F0BDFA41EC0E
:103830001D0BB0EE4C1AF0EE6C1AB0EE4D0AF0EE25
:103840006D0A06F0EDFCB0EE40BAF0EE60BA9FED06
:103850000B0B53EC102B51EC1B0B07F0AFFF41ECA3
:103860001A0B07F093FC306001E0022020E70020F3
:103870001EE70000000000000000804E66666666DD
:1038800066A64C4010B5C8234FF48062F74940F655
:10389000F630FFF7A1FC10BD10B586B00446F4A0C9
:1038A00000680390F3A000680290F3A00068019004
:1038B000F2A00068009004F0030003A9085C8DF8F2
:1038C000140003A8C4F3C101405C8DF8150003A8DF
:1038D000C4F38111405C8DF8160004F0030002A9C6
:1038E000085C8DF8100002A8C4F3C101405C8DF89B
:1038F000110002A8C4F38111405C8DF8120005AAE2
:10390000032140F22640FFF7EDFB18B14FF0FF30E6
:1039100006B010BD04AA032140F22A40FFF7E2FBE3
:1039200010B14FF0FF30F3E7019805900098049034
:1039300004F0040058B19DF8140040F001008DF827
:1039400014009DF8100040F001008DF8100004F004
:10395000200058B19DF8150040F001008DF81500C9
:103960009DF8110040F001008DF8110004F4807002
:1039700058B19DF8160040F001008DF816009DF832
:10398000120040F001008DF8120005AA03214FF447
:103990008860FFF7A7FB10B14FF0FF30B8E704AA2B
:1039A000032140F23140FFF79DFB10B14FF0FF3093
:1039B000AEE7B34804810020AAE71FB50446B0482B
:1039C000007A00F0030054F820000190AC48007A1F
:1039D00000F0040010B1019840420190A848007A1C
:1039E000C0F3C10054F820000290A548007A00F00E
:1039F000200010B1029840420290A148007AC0F322
:103A0000811054F8200003909D48008900F48070D4
:103A100010B10398404203909A49019880FB01013C
:103A2000800F40EA810001909649029880FB0110C6
:103A3000820042EA917002909249039880FB011043
:103A4000820042EA917003900198000E8DF8000008
:103A50000198000C8DF801000198000A8DF8020011
:103A60000198C0B28DF803006A4604214FF47470C7
:103A7000FFF738FB18B14FF0FF3004B010BD0298CB
:103A8000000E8DF800000298000C8DF801000298DD
:103A9000000A8DF802000298C0B28DF803006A4651
:103AA00004214FF47570FFF71DFB10B14FF0FF308C
:103AB000E3E70398000E8DF800000398000C8DF8E2
:103AC00001000398000A8DF802000398C0B28DF837
:103AD00003006A4604214FF47670FFF703FBCCE73E
:103AE00070B588B0064601A8FEF7EBFCBDF80400EF
:103AF0000021C90341EA5045C4036148007A00F03F
:103B0000030056F8200005905D48007A00F004009C
:103B100010B10598404205905948007AC0F3C100A1
:103B200056F8200006905648007A00F0200010B1A8
:103B30000698404206905248007AC0F3811056F829
:103B4000200007904E48008900F4807010B107985B
:103B5000404207900598C117A0FB042301FB0431E4
:103B600000FB0510810041EA927005900698C1178C
:103B7000A0FB042301FB043100FB0510810041EA96
:103B8000927006900798C117A0FB042301FB043133
:103B900000FB0510810041EA927007900598000E25
:103BA0008DF808000598000C8DF809000598000AAA
:103BB0008DF80A000598C0B28DF80B000698000E2B
:103BC0008DF80C000698000C8DF80D000698000A80
:103BD0008DF80E000698C0B28DF80F000798000E01
:103BE0008DF810000798000C8DF811000798000A56
:103BF0008DF812000798C0B28DF8130002AA0C21AC
:103C00004FF42570FFF76EFA08B070BD30B585B07F
:103C100004461DA207CA02AB07C3C82C03DD4FF040
:103C2000FF3005B030BDC82090FBF4F0401E85B2D7
:103C3000280A8DF80000E8B28DF801006A460221DA
:103C400040F21620FFF74EFA10B14FF0FF30E8E7D0
:103C500002AA0C2140F6C120FFF744FA10B14FF040
:103C6000FF30DEE7064884810020DAE7ECBF000879
:103C70004CCD6C000CC92C003656760026466600EA
:103C8000E801002009E3CA02FEF2ABC4AAF1DFDFBB
:103C9000BBAFDFDF0146F94880890880002070470C
:103CA000F0B52DED028B83B006460F4606F00700F7
:103CB00010B1B7F5C86F05DD4FF0FF3003B0BDECB4
:103CC000028BF0BD00EE107AB8EE400ADFEDEC0A90
:103CD00080EE208A01A8FEF770FB9DF80400022800
:103CE00006D0042817D0082828D010284CD138E056
:103CF0009FEDE40A28EE000ABCEEC00A10EE100A9E
:103D000084B29FEDE10A28EE000ABCEEC00A10EE74
:103D1000100A85B23BE09FEDDD0A28EE000ABCEEFA
:103D2000C00A10EE100A84B29FEDD90A28EE000AEC
:103D3000BCEEC00A10EE100A85B228E09FEDD50A4D
:103D400028EE000ABCEEC00A10EE100A84B29FED05
:103D5000D20A28EE000ABCEEC00A10EE100A85B2A4
:103D600015E09FEDCE0A28EE000ABCEEC00A10EE68
:103D7000100A84B29FEDCA0A28EE000ABCEEC00AFF
:103D800010EE100A85B202E04FF0FF3096E700BF58
:103D900020128DF80800E0B28DF8090028128DF885
:103DA0000A00E8B28DF80B0006F00100A0B102AAEB
:103DB00002214FF4EA70FFF795F910B14FF0FF3090
:103DC0007CE70DF10A0202214FF49270FFF78AF9A5
:103DD00010B14FF0FF3071E706F00200A0B102AA67
:103DE00002214FF4EC70FFF77DF910B14FF0FF3076
:103DF00064E70DF10A0202214FF49470FFF772F9A3
:103E000010B14FF0FF3059E706F00400A0B102AA4C
:103E100002214FF4EE70FFF765F910B14FF0FF305B
:103E20004CE70DF10A0202214FF49670FFF75AF9A0
:103E300010B14FF0FF3041E700203FE738B50446AE
:103E40000020009004F0010020B19DF8000040F037
:103E50003000009004F0020020B19DF8000040F016
:103E60000C00009004F0040020B19DF8000040F028
:103E7000030000906A4601214FF4A470FFF732F965
:103E800038BD38B50446012C01DA012402E0042CC7
:103E900000DD0424601EC0B200906A46012140F299
:103EA0004F10FFF71FF938BD38B50446052094FBC5
:103EB000F0F085B228128DF80000E8B28DF801000C
:103EC0006A4602214FF4EF70FFF70CF938BD38B5A0
:103ED0000446052094FBF0F085B228128DF800000E
:103EE000E8B28DF801006A4602214FF4ED70FFF749
:103EF000F9F838BDF8B505460E464FF47A7095FBD3
:103F0000F0F000FB06F4200E8DF80000200C8DF878
:103F10000100200A8DF80200E0B28DF803006A4625
:103F200004214FF4AE70FFF7DDF8F8BD38B5044654
:103F3000052094FBF0F084B220128DF80000E0B26E
:103F40008DF801006A4602214FF4AD70FFF7CAF800
:103F500038BD38B50446052094FBF0F084B2201239
:103F60008DF80000E0B28DF801006A4602214FF49E
:103F7000AC70FFF7B7F838BD38B5044614B94FF048
:103F8000FF3038BD6A4604214FF45870FFF7E7F858
:103F900010B14FF0FF30F4E79DF8000000069DF8E7
:103FA000011040EA01409DF8021040EA01209DF80E
:103FB0000310084320600020E3E738B50446200ED4
:103FC0008DF80000200C8DF80100200A8DF8020009
:103FD000E0B28DF803006A4604214FF45870FFF7F1
:103FE00081F838BD38B5044614B94FF0FF3038BDFC
:103FF0006A4604214FF47170FFF7B1F810B14FF029
:10400000FF30F4E79DF8000000069DF8011040EA3B
:1040100001409DF8021040EA01209DF8031008437A
:1040200000EB8000800020600020E0E738B5044607
:104030001420B4FBF0F4200E8DF80000200C8DF855
:104040000100200A8DF80200E0B28DF803006A46F4
:1040500004214FF47170FFF745F838BD38B50446B8
:1040600004B320208DF8000028208DF801003020B6
:104070008DF8020038208DF8030018E0E8010020D8
:104080000000484300008046000040460000004613
:104090000000C0450000804500004045000000458C
:1040A0000000C044A3220421684604F088FA6A464E
:1040B000042140F69E20FFF715F8FDF74FFC38BDB0
:1040C00038B5044664B1C0208DF80000C2208DF8D8
:1040D0000100C4208DF80200C6208DF8030004E022
:1040E0008B220421684604F06AFA6A46042140F6ED
:1040F0009820FEF7F7FFFDF731FC38BD3EB50446CA
:104100006CB1FDA1D1E900208968CDE900200291C0
:104110006A4609214FF49760FEF7E4FF3EBDF9A21D
:10412000D2E900109268CDE9010200916A460921A6
:104130004FF49760FEF7D6FFF0E73EB50446022045
:104140008DF80000CA208DF80100E3208DF80200F0
:1041500009208DF803006A4604216820FEF7C2FF9B
:10416000A3208DF8000004F0400048B1C0208DF875
:104170000100C8208DF80200C2208DF8030006E07F
:10418000A3208DF801008DF802008DF8030004F4DF
:10419000C07048B1C4208DF80400CC208DF8050013
:1041A000C6208DF8060006E0A3208DF804008DF8E7
:1041B00005008DF80600A3208DF807008DF8080093
:1041C0008DF809006A460A2140F6A720FEF78AFF0B
:1041D00004F0030018B120208DF8000002E0D82080
:1041E0008DF800006A46012140F6B620FEF77AFFFE
:1041F00004F0200018B10120FFF780FF02E000204A
:10420000FFF77CFF04F4C07008B304F4807060B161
:10421000B2208DF800008B208DF80100B6208DF8BB
:1042200002009B208DF803000BE0B0208DF8000009
:1042300080208DF80100B4208DF8020090208DF8C8
:1042400003006A46042140F6A220FEF74BFF04F06B
:10425000010020B3F8208DF800006A4601214FF4D8
:104260000B60FEF73FFFFA210720FFF719FD07203B
:10427000FFF7E4FD0120FFF704FE6420FFF714FEC2
:104280004FF4FA70FFF723FEC821A148FFF732FE72
:104290002820FFF74BFE0A20FFF75BFE08E0D8203E
:1042A0008DF800006A4601214FF40B60FEF71AFFFB
:1042B00004F0020018B1D9208DF8000002E0D820E7
:1042C0008DF800006A46012140F23D70FEF70AFFBA
:1042D00004F0040018B10120FFF7F2FE02E0002014
:1042E000FFF7EEFE04F0100018B10120FFF7B6FE54
:1042F00002E00020FFF7B2FE44F008008549488143
:10430000FDF72CFB00208349887304F0400018B1AE
:104310000846807B801D887304F4C07020B17D48FE
:10432000807B801D7B49887304F0140020B179489C
:10433000807B10307749887304F0030020B1754802
:10434000807B001D7349887300203EBD0146714883
:1043500040890880002070472DE9F0410446E0784C
:1043600000F0C006E07800F03F05607800F0010042
:1043700098B1EF102846E91705EB5171C910A5EB6C
:10438000C101491C01F0FF086248006820B1614882
:10439000414602683846904700BF607800F0080048
:1043A00030B15C48406818B1B0115A4A516888472A
:1043B0000020BDE8F08110B586B0044656A207CAB9
:1043C00003AB07C357A207CA8DE80700012C09D029
:1043D000022C0ED103AA0B2140F68220FEF782FEAA
:1043E00006B010BD6A460B2140F68220FEF77AFE29
:1043F000F6E74FF0FF30F3E72DE9F04F8DB00746B9
:10440000884615469946DDE9166B00240020308069
:104410004049887B5A4605A9FEF7AFF918B1601EDE
:104420000DB0BDE8F08F3B48807A00F01400002802
:1044300061D09DF8140000069DF8151040EA014077
:104440009DF8161040EA01209DF8171008432860D7
:104450009DF8180000069DF8191040EA01409DF8EB
:104460001A1040EA01209DF81B10084368609DF86F
:104470001C0000069DF81D1040EA01409DF81E102A
:1044800040EA01209DF81F100843A8609DF8200015
:1044900000069DF8211040EA01409DF8221040EAF4
:1044A00001209DF823100843E86004F11000C4B215
:1044B000286800140190686800140290A86800142D
:1044C0000390E8680014049001984043029901FBAE
:1044D0000100039901FB0100049901FB010ABAF1F3
:1044E000706F02DBBAF1885F22DDFDF737FA00203A
:1044F0003080401E94E721E0B8AAB38DB4980D3502
:104500005D000000B8AAAAAAB088C3C5C700000011
:1045100009E3CA02E8010020D8B1B9F38BA391B630
:1045200009B4D900DAB1B9F38BA391B6DAB4DA00E1
:10453000B6F9000040F48070308000BF3448807AC3
:1045400000F0400020B305A9601C085C095D40EA4A
:10455000012000B2A8F8000005A9E01C095C05AA2A
:10456000A01C105C41EA002000B2A8F8020005A9D6
:10457000601D095C201D105C41EA002000B2A8F813
:104580000400A01DC4B2B6F9000040F0080030805D
:104590001F48408900F4C07008B305A9601C085C7E
:1045A000095D40EA012000B2388005A9E01C095CE1
:1045B00005AAA01C105C41EA002000B2788005A981
:1045C000601D095C201D105C41EA002000B2B8802B
:1045D000A01DC4B2B6F9000040F0700030800C4855
:1045E000807A00F0030018B105A90819FFF7B4FE9E
:1045F0004846FDF720FD002012E70146044801600F
:1046000000207047014602484160002070470000CA
:10461000E801002070B505460C4600F0FCF9D020FA
:1046200000F0A5FA00F038FA18B100F016FA0120EF
:1046300070BD284600F09BFA00F02EFA204600F0EC
:1046400096FA00F029FA18B100F007FA0120EFE716
:1046500000F003FA0020EBE770B504460025BC2CFF
:1046600001DB012510E0622C01DB02250CE02A2C85
:1046700001DB032508E0142C01DB042504E00A2CEF
:1046800001DB052500E0062529461A20FFF7C2FFB9
:1046900070BD70B50446B4F57A7F01DD4FF47A74CD
:1046A000042C00DA04244FF47A7090FBF4F0401EDE
:1046B000C5B229461920FFF7ADFF0546264604EB93
:1046C000D671C1F34F00FFF7C7FF70BD70B5044648
:1046D00000F0A1F9D02000F04AFA00F0DDF9204600
:1046E00000F045FA00F0D8F900F095F9D12000F07B
:1046F0003EFA00F0D1F9002000F066FA054600F01D
:10470000ACF9284670BD10B50446E006010E1C2029
:10471000FFF780FF10BD10B50446E006010E1B2018
:10472000FFF778FF10BD10B500F056F980216B201F
:10473000FFF770FF642001F023FF00216B20FFF7DB
:1047400069FF0020FFF7E7FF0020FFF7DCFF3220C2
:10475000FFF79FFF00213820FFF75CFF00216A2050
:10476000FFF758FF00212320FFF754FF8021372057
:10477000FFF750FF7520FFF7A9FF0446682C0BD107
:1047800001216B20FFF746FF00216C20FFF742FF5D
:104790003220FFF77EFF01E0012010BD0020FCE782
:1047A0002DE9F04106460F4614461D4600F033F948
:1047B000002141EA4601C8B200F0D9F900F06CF9D5
:1047C00020B100F04AF90120BDE8F081384600F040
:1047D000CEF900F061F900F01EF9012101EB46016C
:1047E000C8B200F0C4F900F057F90DE0012C04D173
:1047F000002000F0E9F9287003E0012000F0E4F95E
:104800002870601EC4B26D1C002CEFD100F025F999
:104810000020D9E710B52DED088B82B001AB022244
:1048200041216820FFF7BCFF9DF805009DF80410AA
:1048300040EA012004B2204606F059FF9FED610BCB
:1048400053EC102B06F090FD9FED600B53EC102BFA
:1048500006F0CEFC06F09AFC08EE100ABDEEC80A7F
:1048600010EE100A6421484300B202B0BDEC088B80
:1048700010BD2DE9FC4104460D4616466B46062246
:1048800043216820FFF78CFF0746BFB99DF8010060
:104890009DF8001040EA012000B220809DF803003E
:1048A0009DF8021040EA012000B228809DF8050022
:1048B0009DF8041040EA012000B230803846BDE87F
:1048C000FC812DE9FC4104460D4616466B46062246
:1048D0003B216820FFF764FF0746BFB99DF8010040
:1048E0009DF8001040EA012000B220809DF80300EE
:1048F0009DF8021040EA012000B228809DF80500D2
:104900009DF8041040EA012000B230803846BDE82E
:10491000FC812DE9F04105460E461746984600F009
:104920007AF8002141EA4501C8B200F020F900F010
:10493000B3F820B100F091F80120BDE8F0813046D5
:1049400000F015F900F0A8F800240CE018F80400B5
:1049500000F00DF900F0A0F818B100F07EF8012089
:10496000EBE7601CC4B2BC42F0DB00F076F800203C
:10497000E3E7F0B515461E46C7130FB9024603E03C
:10498000C443671C7F423AB2CF130FB90B4603E012
:10499000CC43671C7F423BB200EE103AB8EEC00A2F
:1049A000DFED0C0A80EE201A85ED001A00EE102AC9
:1049B000B8EEC00ADFED070A80EE201A86ED001A75
:1049C000F0BD00000000000000407540A4703D0AEA
:1049D000D7434240333383411CB50121022002F00A
:1049E000A3F94FF44070009001208DF804000020DE
:1049F0008DF8060003208DF8050001208DF80700D2
:104A00006946894801F0F2FE01208849086088491A
:104A1000C1F8A4021CBD10B58348006820F44020F2
:104A2000814908600846006840F480200860012041
:104A30007E49091D08607E49C1F8A002042001F0EA
:104A400057FD00207949091D0860042001F050FD40
:104A500000207749C1F8A00210BD10B57248006867
:104A600020F44020704908600846006840F4802027
:104A7000086000206D4908606D49C1F8A402042057
:104A800001F036FD0120694908606949C1F8A402B6
:104A9000042001F02DFD10BD10B50024624800680F
:104AA00020F4402060490860084600680860012042
:104AB0005E49091D086001F01BFD01205C49C1F839
:104AC000A00201F015FD07E0601CC4B2FA2C03DD62
:104AD000FFF7C3FF012010BD54487C380068002850
:104AE000F2D15249086000BFF5E710B500204F49E8
:104AF00008604D48006820F440204B490860084693
:104B0000006840F48020086000204949C1F8A402F0
:104B1000022001F0EDFC012044490860022001F070
:104B2000E7FC00204249C1F8A00210BD10B50020EA
:104B30003E4908603C48006820F440203A4908603B
:104B40000846006840F48020086001203849C1F818
:104B5000A402022001F0CCFC0120344908600220AC
:104B600001F0C6FC00203249C1F8A00210BD70B5AA
:104B700004462D48006820F440202B490860084670
:104B8000006840F480200860002028490860002563
:104B900017E0E0092549091D08606006040E02209F
:104BA00001F0A6FC01202249C1F8A002022001F078
:104BB0009FFC00201D490860022001F099FC681C40
:104BC000C5B2082DE5DB70BD70B50546002416485A
:104BD000006820F440201449086008460068086016
:104BE000002616E0002011490860022001F080FC38
:104BF00001200F49C1F8A0026006040E0B487C3862
:104C0000006808B1601CC4B2012001F071FC701C86
:104C1000C6B2082EE6DB15B9FFF788FF01E0FFF703
:104C200064FF204670BD000000040240A0824042A4
:104C30000080404230B58BB004460D460121022071
:104C400002F0BBF80121042002F06EF802220721D5
:104C5000884801F056FE02220621864801F051FEE6
:104C600002220821834801F04CFE022209218148DA
:104C700001F047FE4FF47070099002208DF8280073
:104C80008DF8290000208DF82A0001208DF82B00D6
:104C900009A9784801F0AAFDA8B2ADF818000020D3
:104CA000ADF81A000794ADF8200006A9724802F08A
:104CB000B0FC6020ADF804000120ADF80600002033
:104CC000ADF8100001A96C4802F038FD08216A48CF
:104CD00002F0C1FE01A9684802F069FD082166489A
:104CE00002F0C2FE01A9644802F0AEFD082162484C
:104CF00002F0C7FE01A9604802F00CFE08215E48E0
:104D000002F0C8FE01215C4802F00CFD00215A4867
:104D100002F06DFE0021584802F06BFE002156485B
:104D200002F069FE0021544802F067FE0BB030BD6E
:104D300030B58BB004460D460121042002F03DF849
:104D40000121082001F0F0FF02220C214B4801F064
:104D5000D8FD02220D21494801F0D3FD4FF4405007
:104D6000099002208DF828008DF8290000208DF888
:104D70002A0001208DF82B0009A9404801F036FDDA
:104D8000A8B2ADF818000020ADF81A000794ADF8ED
:104D9000200006A93A4802F03CFC6020ADF804006F
:104DA0000120ADF806000020ADF8100001A934483C
:104DB00002F0C4FC0821324802F04DFE01A930483F
:104DC00002F0F5FC08212E4802F04EFE01212C488D
:104DD00002F0A8FC0BB030BD30B58BB004460D46D8
:104DE0000121082001F0E9FF0121084601F09CFFA4
:104DF00002221146234801F084FD0420099002207C
:104E00008DF828008DF8290000208DF82A00012057
:104E10008DF82B0009A91B4801F0E8FCA8B2ADF8F9
:104E200018000020ADF81A000794ADF8200006A97C
:104E3000154802F0EEFB6020ADF804000120ADF84B
:104E400006000020ADF8100001A90F4802F076FC22
:104E500008210D4802F0FFFD01A90B4802F0A7FC54
:104E60000821094802F000FE0121074802F05AFC1F
:104E70000BB030BD0008024000040040000C0240AE
:104E80000008004000000240000C004070B52DED0D
:104E9000048B04460D4694ED0E2BB0EE420AF0EE64
:104EA000620A94ED0C2BB0EE421AF0EE621A53EC4B
:104EB000102B51EC110B06F09BF941EC180B94ED03
:104EC000101BB0EE410AF0EE610A53EC102B06F015
:104ED0008FF9C4E9000194ED101BB0EE410AF0EE29
:104EE000610A53EC102B9FED801B51EC110B06F067
:104EF00065FC41EC180B94ED0C1BB0EE410AF0EE92
:104F0000610A51EC100B06F035F941EC190B53EC2A
:104F1000182B06F05FFEC4E9020194ED100B84ED3E
:104F2000040B25B1182104F1180003F050FBBDEC6F
:104F3000048B70BD10B52DED0E8B0446B0EE408A8B
:104F4000F0EE608A94ED082BB0EE420AF0EE620AB1
:104F500094ED042BB0EE421AF0EE621A53EC102BD3
:104F600051EC110B06F02AFC41EC1B0B94ED062BC7
:104F7000B0EE420AF0EE620A94ED022BB0EE421A55
:104F8000F0EE621A53EC102B51EC110B06F016FCEC
:104F900041EC1D0B94ED001BB0EE410AF0EE610AEE
:104FA00053EC182B51EC100B06F008FC41EC1E0BD7
:104FB00053EC1D2B06F01CF941EC1C0B53EC1B2B86
:104FC00006F016F941EC1A0B94ED0A1BB0EE410AFB
:104FD000F0EE610A53EC102B06F00AF941EC190BC4
:104FE00094ED060B84ED080B84ED068B84ED0A9B93
:104FF000B0EE490AF0EE690ABDEC0E8B10BD10B59B
:105000002DED0E8B0446B0EE408AF0EE608A94EDF2
:10501000082BB0EE420AF0EE620A94ED042BB0EEDB
:10502000421AF0EE621A53EC102B51EC110B06F001
:10503000C5FB41EC1B0B94ED062BB0EE420AF0EEE3
:10504000620A94ED022BB0EE421AF0EE621A53ECB3
:10505000102B51EC110B06F0B1FB41EC1D0B94ED44
:10506000001BB0EE410AF0EE610A53EC182B51EC34
:10507000100B06F0A3FB41EC1E0B53EC1D2B06F0AE
:10508000B7F841EC1C0B53EC1B2B06F0B1F841ECCC
:105090001A0B94ED0A1BB0EE410AF0EE610A53ECD4
:1050A000102B06F0A5F841EC190B94ED062BB0EE91
:1050B000420AF0EE620A94ED082BB0EE421AF0EECE
:1050C000621A53EC102B51EC110B06F091F8C4E965
:1050D000080184ED068B84ED0A9BB0EE490AF0EEE0
:1050E000690ABDEC0E8B10BD0000000000000040FE
:1050F00000B585B00121102001F016FE00208DF8CA
:1051000010008DF8120001208DF8130002208DF898
:1051100011001F20039003A9FA4801F067FB012149
:10512000880301F05BFE0021042001F062FF0121F1
:10513000042001F05EFF0221042001F05AFF032148
:10514000042001F056FF0421084601F052FF1F2001
:10515000009000208DF8040008208DF80500012043
:105160008DF80600684603F007F808208DF808005F
:1051700001208DF809008DF80A008DF80B0002A8B7
:1051800001F043FA09208DF8080001208DF809008C
:105190008DF80A008DF80B0002A801F036FA0A20FB
:1051A0008DF8080001208DF809008DF80A008DF8AF
:1051B0000B0002A801F029FA06208DF80800012052
:1051C0008DF809008DF80A008DF80B0002A801F097
:1051D0001CFA07208DF8080001208DF809008DF8D1
:1051E0000A008DF80B0002A801F00FFA05B000BD0F
:1051F00010B52DED0A8B012003F024F800287CD097
:1052000021E000F095FFC04890ED000ABDEEC00A15
:10521000BE4880ED000A0020BD49086004E0BC489B
:105220000068401CBA490860B948006842F2107131
:105230008842F4DBB44890ED000AB5EEC00AF1EE06
:1052400010FA00D000E0DCE700BF292142F20F7025
:1052500000F0A2FCAD48006806F049FA41EC1C0BD6
:105260009FEDAC0B53EC102B06F07EF841EC1B0BC2
:10527000B0EE4B0AF0EE6B0A04F066FEB0EE40AA08
:10528000F0EE60AA9FEDA50B53EC102B51EC1A0B1E
:1052900006F094FA41EC190B9FEDA20B53EC102B86
:1052A00006F08CFA41EC180B05F070FF9F4908607E
:1052B0009FED9F0BA04880ED0C0B9FEDA00B80EDA8
:1052C0000E0B9FEDA00B80ED100B96E19F48006840
:1052D00006F06AFD41EC180B9D48006806F064FD7D
:1052E00041EC1A0BB0EE4A0AF0EE6A0A05F010F92A
:1052F000B0EE409AF0EE609A00E07FE153EC182B9C
:1053000051EC190B06F058FB12D2914991ED000AAD
:10531000BDEEC00A10EE100A002801DB014600E0D5
:10532000414200EE101AB8EEC00A884981ED000A29
:10533000864890ED000A7D48D0ED000AB4EEE00A00
:10534000F1EE10FA36D2834890ED000AB5EEC00AAD
:10535000F1EE10FA09DD4FF4FA617F4802F04DFBDF
:1053600000217D4802F047FB08E04FF4FA617A48DB
:1053700002F041FB0021784802F03FFB774890EDB6
:10538000000AB5EEC00AF1EE10FA09DD4FF4FA6139
:10539000714802F02EFB00216F4802F028FB2CE13F
:1053A0004FF4FA616C4802F022FB00216A4802F0D7
:1053B00020FB22E120E16948006806F0F5FC41ECA1
:1053C000190BB0EE490AF0EE690A05F0A1F8B0EE4B
:1053D000408AF0EE608A9FED620B53EC102B51EC8B
:1053E000180B06F0AFF94FD25948006806F0DCFC04
:1053F00041EC190BB0EE490AF0EE690A05F088F8A5
:10540000B0EE408AF0EE608A51EC180B05F0BEFE5B
:105410004E4908604E48006806F0C6FC41EC1B0B84
:10542000B0EE4B0AF0EE6B0A05F072F8B0EE409A5F
:10543000F0EE609A3D48006806F0B6FC41EC1A0BAD
:1054400053EC192B06F0C6FB41EC180B05F09EFE41
:10545000454908600846006806F0A6FC41EC190BB7
:10546000B0EE490AF0EE690A3348FFF763FDB0EE8B
:10547000408AF0EE608A51EC180B05F087FE3B493C
:105480000860322001F07CF8324890ED000AB5EE59
:10549000C00AF1EE10FA09DD4FF4FA612E4802F06D
:1054A000ACFA00212C4802F0A6FA08E04FF4FA61A9
:1054B000294802F0A0FA0021274802F09EFA274866
:1054C00090ED000AB5EEC00AF1EE10FA66DD27484D
:1054D00090ED000AB5EEC00AF1EE10FA4ADD90ED4B
:1054E000000ADFED230A30EE200ABCEEC00A10EEFF
:1054F000101A194802F07DFA4FF47A71164802F03A
:1055000076FA79E000100240540100207800002073
:105510007C000020333333333313564066666666AF
:1055200066A64C407B14AE47E17AF03FCC000020E9
:105530000000000000007940800100200000000011
:1055400000003E400000000000000040C8000020B5
:10555000B80000205C000020000400406000002033
:105560009A9999999999E93F68000020A80000202C
:1055700000007A44FB4890ED000A5FED030A30EE2C
:10558000C00ABCEEC00A10EE101AF74802F02FFA5B
:105590004FF47A71F44802F02CFA2DE0F14890EDC6
:1055A000000AB5EEC00AF1EE10FA12DD90ED000A25
:1055B0005FED110A30EE200ABCEEC00A10EE101AA0
:1055C000E94802F014FA4FF47A71E74802F011FA50
:1055D00012E0E44890ED000A5FED1B0A30EEC00ACD
:1055E000BCEEC00A10EE101ADF4802F002FA4FF4C7
:1055F0007A71DD4802F0FBF9DDE667E6012002F092
:105600002CFEBDEC0A8B10BD10B52DED0A8B0220CF
:1056100002F018FE00287CD0292142F20F7000F021
:10562000BBFA23E10020D149086022E0D049CF4AEB
:10563000126851F8220006F05AF841EC180BCD48D8
:1056400090ED000B53EC102B51EC180B05F0E4FF20
:105650000AD1C7492831C54A126851F8220006F01C
:1056600046F8C44A03C208E0C0480068401CBF496D
:105670000860BE4800680928D8DD00BF1FED590B3F
:1056800053EC102BBB4890ED000B51EC100B05F0C8
:105690006BFE41EC1C0BB0EE4C0AF0EE6C0A04F011
:1056A000D3FEB0EE40BAF0EE60BA9FEDB30B53EC10
:1056B000102B51EC1B0B06F081F841EC1A0B9FEDFF
:1056C000B00B53EC102B05F093FD41EC190B9FED43
:1056D000AE0B53EC102B05F047FE41EC180B05F018
:1056E00055FDAB4908601FED730B53EC102BA1481F
:1056F00090ED000B51EC100B05F036FE41EC1C0B4D
:10570000B0EE4C0AF0EE6C0A04F076FFB0EE40BA50
:1057100000E0ACE0F0EE60BA9FED970B53EC102B7D
:1057200051EC1B0B06F04AF841EC1A0B9FED940B61
:1057300053EC102B05F05CFD41EC190B9FED920B27
:1057400053EC102B05F010FE41EC180B05F01EFD7C
:105750009049086048E0904890ED000AB5EEC00A14
:10576000F1EE10FA07DC8D4890ED000AB5EEC00AA4
:10577000F1EE10FA1CD2864890ED000ABCEEC00A89
:1057800010EE101A784802F034F90021764802F041
:105790002EF9804890ED000ABCEEC00A10EE101AF7
:1057A000714802F02AF900216F4802F024F91BE049
:1057B000774890ED000ABCEEC00A10EE101A6A4855
:1057C00002F015F90021684802F013F9714890EDD4
:1057D000000ABCEEC00A10EE101A634802F00BF982
:1057E0000021614802F009F96D48006806F0DCFA12
:1057F00041EC190BB0EE490AF0EE690A04F088FE9C
:10580000B0EE408AF0EE608A9FED660B53EC102BF1
:1058100051EC180B05F096FF18D26448006806F0AA
:10582000C3FA41EC190BB0EE490AF0EE690A04F034
:105830006FFEB0EE408AF0EE608A9FED5A0B53EC9B
:10584000102B51EC180B05F07DFF84D30021464846
:1058500002F0CDF80021444802F0CBF80021424884
:1058600002F0C9F80021404802F0C7F8DAE6022049
:1058700002F0F3FCBDEC0A8B10BD10B5FEF753FF30
:1058800000BFFDF7A2FE0128FBD0292142F20F70D4
:1058900000F082F9042002F0D5FC90B33BE04FF415
:1058A0008041434801F01EF83C4890ED000AB5EEF7
:1058B000C00AF1EE10FA09DD41F288312A4802F0FF
:1058C0009CF80021284802F096F808E041F288315F
:1058D000254802F090F80021234802F08EF82E4867
:1058E00090ED000AB5EEC00AF1EE10FA0ADD41F2C1
:1058F00088311D4802F07BF800211B4802F079F83E
:1059000009E009E041F28831174802F072F80021FD
:10591000154802F06CF8C2E7042002F09EFC10BDAE
:1059200010B52DED048B292142F20F7000F034F9EF
:10593000082002F087FC002871D001E143E01648FE
:1059400090ED000AB5EEC00AF1EE10FA32DD40F635
:10595000B831054802F04DF80021034802F047F83D
:1059600031E00000A8000020000400407C0000207E
:1059700028000020A00000200000000000AAE44051
:105980000000000000D07940000000E0A3702C402F
:105990008000002084000020600000205C000020C7
:1059A000B80000200000000000002E40B4000020DD
:1059B0000000024040F6B8316B4802F018F80021B0
:1059C000694802F016F86948006806F0EDF941EC04
:1059D000190BB0EE490AF0EE690A04F099FDB0EE39
:1059E000408AF0EE608A9FED620B53EC102B51EC75
:1059F000180B05F0A7FEA2D3A1E05F4890ED000AC6
:105A0000B5EEC00AF1EE10FA0ADD5C4801685648AE
:105A100001F0EFFF0021544801F0E9FF09E090E0B8
:105A200056480168504801F0E2FF00214E4801F05D
:105A3000E0FF5148006806F0B7F941EC190BB0EEF1
:105A4000490AF0EE690A04F063FDB0EE408AF0EE18
:105A5000608A9FED4B0B53EC102B51EC180B05F0AB
:105A600071FE6CD21AE0484890ED000AB5EEC00A0B
:105A7000F1EE10FA09DD40F6B8313B4801F0BBFF0A
:105A80000021394801F0B9FF08E040F6B831364846
:105A900001F0B3FF0021344801F0ADFF3B4800683E
:105AA00006F082F941EC190BB0EE490AF0EE690AF2
:105AB00004F02EFDB0EE408AF0EE608A9FED340BCC
:105AC00053EC102B51EC180B05F03CFECBD335E01A
:105AD000294890ED000AB5EEC00AF1EE10FA09DD92
